{
  "transactions": [
    {
      "hash": "0x060671cb5775f68bd72caefb9a6b68efe21f2ce30a8d5aefe962c83bc841bf65",
      "transactionType": "CALL",
      "contractName": null,
      "contractAddress": "0x57f47c1f48b1078608f259b17d11f5ac925e5e04",
      "function": "approve(address,uint256)",
      "arguments": [
        "0x9701fa2bE9F5FB035c7249627546D581eCf2E591",
        "1000000000000000000"
      ],
      "transaction": {
        "from": "0xe34aaf64b29273b7d567fcfc40544c014eee9970",
        "to": "0x57f47c1f48b1078608f259b17d11f5ac925e5e04",
        "gas": "0xfa29",
        "value": "0x0",
        "input": "0x095ea7b30000000000000000000000009701fa2be9f5fb035c7249627546d581ecf2e5910000000000000000000000000000000000000000000000000de0b6b3a7640000",
        "nonce": "0x25",
        "chainId": "0x425d4"
      },
      "additionalContracts": [],
      "isFixedGasLimit": false
    },
    {
      "hash": "0xe1a822a5702d65bdf3cbf603a2082c9e275e0c2c0aa1a44c48fe73e9da700d3b",
      "transactionType": "CALL",
      "contractName": null,
      "contractAddress": "0x9c85cd40541d67670aac4d8249a55668896a6bd3",
      "function": "approve(address,uint256)",
      "arguments": [
        "0x9701fa2bE9F5FB035c7249627546D581eCf2E591",
        "2800000000"
      ],
      "transaction": {
        "from": "0xe34aaf64b29273b7d567fcfc40544c014eee9970",
        "to": "0x9c85cd40541d67670aac4d8249a55668896a6bd3",
        "gas": "0x108ad",
        "value": "0x0",
        "input": "0x095ea7b30000000000000000000000009701fa2be9f5fb035c7249627546d581ecf2e59100000000000000000000000000000000000000000000000000000000a6e49c00",
        "nonce": "0x26",
        "chainId": "0x425d4"
      },
      "additionalContracts": [],
      "isFixedGasLimit": false
    },
    {
      "hash": "0x589961f20d7226b6d132408df1f62f748d544fdfbeeb336b021e97553b310eba",
      "transactionType": "CALL",
      "contractName": null,
      "contractAddress": "0x9701fa2be9f5fb035c7249627546d581ecf2e591",
      "function": "createAndAddLiquidity(address,address,uint24,uint256,uint256,uint160)",
      "arguments": [
        "0x57f47C1F48b1078608f259B17D11f5ac925e5E04",
        "0x9c85cd40541D67670aaC4D8249a55668896A6BD3",
        "3000",
        "1000000000000000000",
        "2800000000",
        "4192360296907066423796396063355271645"
      ],
      "transaction": {
        "from": "0xe34aaf64b29273b7d567fcfc40544c014eee9970",
        "to": "0x9701fa2be9f5fb035c7249627546d581ecf2e591",
        "gas": "0x3afdd",
        "value": "0x0",
        "input": "0xd22a919000000000000000000000000057f47c1f48b1078608f259b17d11f5ac925e5e040000000000000000000000009c85cd40541d67670aac4d8249a55668896a6bd30000000000000000000000000000000000000000000000000000000000000bb80000000000000000000000000000000000000000000000000de0b6b3a764000000000000000000000000000000000000000000000000000000000000a6e49c000000000000000000000000000000000003276b5238a6948698bfb75caf4b79dd",
        "nonce": "0x27",
        "chainId": "0x425d4"
      },
      "additionalContracts": [],
      "isFixedGasLimit": false
    }
  ],
  "receipts": [
    {
      "status": "0x1",
      "cumulativeGasUsed": "0xb51e",
      "logs": [
        {
          "address": "0x57f47c1f48b1078608f259b17d11f5ac925e5e04",
          "topics": [
            "0x8c5be1e5ebec7d5bd14f71427d1e84f3dd0314c0f7b2291e5b200ac8c7c3b925",
            "0x000000000000000000000000e34aaf64b29273b7d567fcfc40544c014eee9970",
            "0x0000000000000000000000009701fa2be9f5fb035c7249627546d581ecf2e591"
          ],
          "data": "0x0000000000000000000000000000000000000000000000000de0b6b3a7640000",
          "blockHash": "0x616fad988e045a267052ed576ed0d7250fe9627c6882a391f71a98c7f3aceec2",
          "blockNumber": "0x82c8",
          "transactionHash": "0x060671cb5775f68bd72caefb9a6b68efe21f2ce30a8d5aefe962c83bc841bf65",
          "transactionIndex": "0x0",
          "logIndex": "0x0",
          "removed": false
        }
      ],
      "logsBloom": "0x00000000000000000000000000000000000000000000000000000000000000000000000000000000000008000000000000000000000000000000000000200000000000000000000000000000000000000000000000000000000040000000000000000000000000000000000000000000000000000000000000000000000000010080000000000000000000000000000000000000000000000000000000000000020000010000000000000000000000010000000000000000000000000000000020000000000000000000000000000000000000000000000000000000000000000050000000000000000000000000000000000000000000001000000000000000",
      "type": "0x2",
      "transactionHash": "0x060671cb5775f68bd72caefb9a6b68efe21f2ce30a8d5aefe962c83bc841bf65",
      "transactionIndex": "0x0",
      "blockHash": "0x616fad988e045a267052ed576ed0d7250fe9627c6882a391f71a98c7f3aceec2",
      "blockNumber": "0x82c8",
      "gasUsed": "0xb51e",
      "effectiveGasPrice": "0x3b9aca07",
      "from": "0xe34aaf64b29273b7d567fcfc40544c014eee9970",
      "to": "0x57f47c1f48b1078608f259b17d11f5ac925e5e04",
      "contractAddress": null
    },
    {
      "status": "0x1",
      "cumulativeGasUsed": "0x16a18",
      "logs": [
        {
          "address": "0x9c85cd40541d67670aac4d8249a55668896a6bd3",
          "topics": [
            "0x8c5be1e5ebec7d5bd14f71427d1e84f3dd0314c0f7b2291e5b200ac8c7c3b925",
            "0x000000000000000000000000e34aaf64b29273b7d567fcfc40544c014eee9970",
            "0x0000000000000000000000009701fa2be9f5fb035c7249627546d581ecf2e591"
          ],
          "data": "0x00000000000000000000000000000000000000000000000000000000a6e49c00",
          "blockHash": "0x616fad988e045a267052ed576ed0d7250fe9627c6882a391f71a98c7f3aceec2",
          "blockNumber": "0x82c8",
          "transactionHash": "0xe1a822a5702d65bdf3cbf603a2082c9e275e0c2c0aa1a44c48fe73e9da700d3b",
          "transactionIndex": "0x1",
          "logIndex": "0x1",
          "removed": false
        }
      ],
      "logsBloom": "0x00000800000000000000000000000800000000000000000000000000000000000000000000000000000008000000000000000000000000000000000000200000000000000000000000000000000000000000000000000000000000000000000000000000000000000000000000000000000000000000000000000000004000000080000000000000000000000000000000000000000000000000000000000000020000010000000000000000000000000000000000000000000000000000000020000000000000000000000000000000000000000000000000000000000000000050000000000000000000000000000000000000000000001000000000000000",
      "type": "0x2",
      "transactionHash": "0xe1a822a5702d65bdf3cbf603a2082c9e275e0c2c0aa1a44c48fe73e9da700d3b",
      "transactionIndex": "0x1",
      "blockHash": "0x616fad988e045a267052ed576ed0d7250fe9627c6882a391f71a98c7f3aceec2",
      "blockNumber": "0x82c8",
      "gasUsed": "0xb4fa",
      "effectiveGasPrice": "0x3b9aca07",
      "from": "0xe34aaf64b29273b7d567fcfc40544c014eee9970",
      "to": "0x9c85cd40541d67670aac4d8249a55668896a6bd3",
      "contractAddress": null
    },
    {
      "status": "0x1",
      "cumulativeGasUsed": "0x3ef79",
      "logs": [
        {
          "address": "0x57f47c1f48b1078608f259b17d11f5ac925e5e04",
          "topics": [
            "0xddf252ad1be2c89b69c2b068fc378daa952ba7f163c4a11628f55a4df523b3ef",
            "0x000000000000000000000000e34aaf64b29273b7d567fcfc40544c014eee9970",
            "0x0000000000000000000000009701fa2be9f5fb035c7249627546d581ecf2e591"
          ],
          "data": "0x0000000000000000000000000000000000000000000000000de0b6b3a7640000",
          "blockHash": "0x616fad988e045a267052ed576ed0d7250fe9627c6882a391f71a98c7f3aceec2",
          "blockNumber": "0x82c8",
          "transactionHash": "0x589961f20d7226b6d132408df1f62f748d544fdfbeeb336b021e97553b310eba",
          "transactionIndex": "0x2",
          "logIndex": "0x2",
          "removed": false
        },
        {
          "address": "0x9c85cd40541d67670aac4d8249a55668896a6bd3",
          "topics": [
            "0xddf252ad1be2c89b69c2b068fc378daa952ba7f163c4a11628f55a4df523b3ef",
            "0x000000000000000000000000e34aaf64b29273b7d567fcfc40544c014eee9970",
            "0x0000000000000000000000009701fa2be9f5fb035c7249627546d581ecf2e591"
          ],
          "data": "0x00000000000000000000000000000000000000000000000000000000a6e49c00",
          "blockHash": "0x616fad988e045a267052ed576ed0d7250fe9627c6882a391f71a98c7f3aceec2",
          "blockNumber": "0x82c8",
          "transactionHash": "0x589961f20d7226b6d132408df1f62f748d544fdfbeeb336b021e97553b310eba",
          "transactionIndex": "0x2",
          "logIndex": "0x3",
          "removed": false
        },
        {
          "address": "0x57f47c1f48b1078608f259b17d11f5ac925e5e04",
          "topics": [
            "0xddf252ad1be2c89b69c2b068fc378daa952ba7f163c4a11628f55a4df523b3ef",
            "0x0000000000000000000000009701fa2be9f5fb035c7249627546d581ecf2e591",
            "0x0000000000000000000000008315780161a0baa7c83f9530aa05883c5aa9351a"
          ],
          "data": "0x0000000000000000000000000000000000000000000000000000000000000001",
          "blockHash": "0x616fad988e045a267052ed576ed0d7250fe9627c6882a391f71a98c7f3aceec2",
          "blockNumber": "0x82c8",
          "transactionHash": "0x589961f20d7226b6d132408df1f62f748d544fdfbeeb336b021e97553b310eba",
          "transactionIndex": "0x2",
          "logIndex": "0x4",
          "removed": false
        },
        {
          "address": "0x9c85cd40541d67670aac4d8249a55668896a6bd3",
          "topics": [
            "0xddf252ad1be2c89b69c2b068fc378daa952ba7f163c4a11628f55a4df523b3ef",
            "0x0000000000000000000000009701fa2be9f5fb035c7249627546d581ecf2e591",
            "0x0000000000000000000000008315780161a0baa7c83f9530aa05883c5aa9351a"
          ],
          "data": "0x00000000000000000000000000000000000000000000000000000000a401ccb4",
          "blockHash": "0x616fad988e045a267052ed576ed0d7250fe9627c6882a391f71a98c7f3aceec2",
          "blockNumber": "0x82c8",
          "transactionHash": "0x589961f20d7226b6d132408df1f62f748d544fdfbeeb336b021e97553b310eba",
          "transactionIndex": "0x2",
          "logIndex": "0x5",
          "removed": false
        },
        {
          "address": "0x8315780161a0baa7c83f9530aa05883c5aa9351a",
          "topics": [
            "0x7a53080ba414158be7ec69b987b5fb7d07dee101fe85488f0853ae16239d0bde",
            "0x000000000000000000000000e34aaf64b29273b7d567fcfc40544c014eee9970",
            "0xfffffffffffffffffffffffffffffffffffffffffffffffffffffffffff2764c",
            "0x00000000000000000000000000000000000000000000000000000000000d89b4"
          ],
          "data": "0x0000000000000000000000009701fa2be9f5fb035c7249627546d581ecf2e5910000000000000000000000000000000000000000000000000000000000000034000000000000000000000000000000000000000000000000000000000000000100000000000000000000000000000000000000000000000000000000a401ccb4",
          "blockHash": "0x616fad988e045a267052ed576ed0d7250fe9627c6882a391f71a98c7f3aceec2",
          "blockNumber": "0x82c8",
          "transactionHash": "0x589961f20d7226b6d132408df1f62f748d544fdfbeeb336b021e97553b310eba",
          "transactionIndex": "0x2",
          "logIndex": "0x6",
          "removed": false
        },
        {
          "address": "0x9701fa2be9f5fb035c7249627546d581ecf2e591",
          "topics": [
            "0xeb6f59288405a42e371d6ea5d2876f36687865f4505aaa7e58aee1bf4d094418"
          ],
          "data": "0x0000000000000000000000008315780161a0baa7c83f9530aa05883c5aa9351a0000000000000000000000000000000000000000000000000000000000000034",
          "blockHash": "0x616fad988e045a267052ed576ed0d7250fe9627c6882a391f71a98c7f3aceec2",
          "blockNumber": "0x82c8",
          "transactionHash": "0x589961f20d7226b6d132408df1f62f748d544fdfbeeb336b021e97553b310eba",
          "transactionIndex": "0x2",
          "logIndex": "0x7",
          "removed": false
        }
      ],
      "logsBloom": "0x00000800000000000000100000000802000000000000000000000040100000004000000000040000002008000000000010000000000000000000000000080000000000400000000000000008000000000080000000000800000040000002000000000002000000000000000000000000000000000000000000000010004000010080000008000000000000000000000000000000000000000000002000000000000200810000000000000000000000030000000000000000000000000000000020000002000000000000080000000000000000000000000000000000000000000040000000000000000000000000000000020000000000001000000000000000",
      "type": "0x2",
      "transactionHash": "0x589961f20d7226b6d132408df1f62f748d544fdfbeeb336b021e97553b310eba",
      "transactionIndex": "0x2",
      "blockHash": "0x616fad988e045a267052ed576ed0d7250fe9627c6882a391f71a98c7f3aceec2",
      "blockNumber": "0x82c8",
      "gasUsed": "0x28561",
      "effectiveGasPrice": "0x3b9aca07",
      "from": "0xe34aaf64b29273b7d567fcfc40544c014eee9970",
      "to": "0x9701fa2be9f5fb035c7249627546d581ecf2e591",
      "contractAddress": null
    }
  ],
  "libraries": [],
  "pending": [],
  "returns": {},
  "timestamp": 1749695915,
  "chain": 271828,
  "commit": "a8068c3"
}